:100000000C9436000C945E000C945E000C945E0020
:100010000C945E000C945E000C945E000C945E00E8
:100020000C945E000C945E000C945E000C945E00D8
:100030000C945E000C945E000C945E000C945E00C8
:100040000C9430030C945E000C94A0030C947A037F
:100050000C945E000C945E000C945E000C945E00A8
:100060000C945E000C945E00D203630511241FBE45
:10007000CFEFD8E0DEBFCDBF21E0A6E2B1E001C006
:100080001D92A63DB207E1F711E0A0E0B1E0EEE479
:10009000F0E102C005900D92A632B107D9F710E049
:1000A000C5E3D0E004C02197FE010E940806C433D6
:1000B000D107C9F70E940B040C941A080C94000095
:1000C000AF92BF92CF92DF92EF92FF920F931F9366
:1000D000CF93DF936C017B018B01040F151FEB01A4
:1000E0005E01AE18BF08C017D10759F06991D6015B
:1000F000ED91FC910190F081E02DC6010995892BCD
:1001000079F7C501DF91CF911F910F91FF90EF908B
:10011000DF90CF90BF90AF900895FC01538D448D38
:10012000252F30E0842F90E0821B930B541710F0A2
:10013000CF96089501970895FC01918D828D9817AF
:1001400061F0A28DAE0FBF2FB11D5D968C91928D87
:100150009F5F9F73928F90E008958FEF9FEF0895B8
:100160002FB7F89480912B0190912C01A0912D0133
:10017000B0912E012FBF8093370190933801A09347
:100180003901B0933A018FE291E00E949C0097FF01
:1001900026C02FB7F89480912B0190912C01A0914B
:1001A0002D01B0912E012FBF4091370150913801A0
:1001B0006091390170913A01841B950BA60BB70B26
:1001C00040913301509134016091350170913601B5
:1001D00084179507A607B707B0F28FEF9FEF089532
:1001E000FC01918D828D981731F0828DE80FF11D01
:1001F000858D90E008958FEF9FEF0895FC01918D1C
:10020000228D892F90E0805C9F4F821B91098F7314
:10021000992708958FE291E00E94FE0021E0892B4A
:1002200009F420E0822F089580E090E0892B29F0E6
:100230000E940A0181110C9400000895FC01A48D14
:10024000A80FB92FB11DA35ABF4F2C91848D90E0F8
:1002500001968F739927848FA689B7892C93A089DB
:10026000B1898C91837080648C93938D848D981365
:1002700006C00288F389E02D80818F7D80830895F8
:10028000EF92FF920F931F93CF93DF93EC0181E0E6
:10029000888F9B8D8C8D98131AC0E889F98980818D
:1002A00085FF15C09FB7F894EE89FF896083E889C0
:1002B000F98980818370806480839FBF81E090E0B2
:1002C000DF91CF911F910F91FF90EF900895F62E3F
:1002D0000B8D10E00F5F1F4F0F731127E02E8C8DD9
:1002E0008E110CC00FB607FCFACFE889F98980811E
:1002F00085FFF5CFCE010E941E01F1CFEB8DEC0FF3
:10030000FD2FF11DE35AFF4FF0829FB7F8940B8F3A
:10031000EA89FB8980818062CFCFCF93DF93EC01A4
:10032000888D8823B9F0AA89BB89E889F9898C91DD
:1003300085FD03C0808186FD0DC00FB607FCF7CF99
:100340008C9185FFF2CF808185FFEDCFCE010E9499
:100350001E01E9CFDF91CF910895FC0101900020AB
:10036000E9F73197AF01481B590BBC018FE291E0CF
:100370000C9460008F929F92AF92BF920F931F9345
:10038000CF93DF93CDB7DEB7A1970FB6F894DEBF5A
:100390000FBECDBF19A2423008F44AE08E010F5DB6
:1003A0001F4F842E912CB12CA12CA50194010E94E9
:1003B000E605E62FB901CA01EA30F4F4E05DD801A0
:1003C000EE938D01232B242B252B79F790E080E0F1
:1003D000109719F0CD010E94AD01A1960FB6F894C7
:1003E000DEBF0FBECDBFDF91CF911F910F91BF90A8
:1003F000AF909F908F900895E95CE1CFAF92BF924C
:10040000CF92DF92EF92FF920F931F93CF93DF93E0
:10041000DC01CD90DC901197C114D10439F0149611
:10042000CD91DC918C017601209761F4DF91CF9121
:100430001F910F91FF90EF90DF90CF90BF90AF9002
:10044000089575015701BFEFAB1ABB0AF701808110
:10045000082E000C990B0E94A305892B91F7219778
:10046000CC0DDD1D8881082E000C990B0E94A30580
:10047000892B29F0CE15DF0510F02197F3CFAE01BF
:100480004F5F5F4F4E195F09D80115965C934E93ED
:100490001497CE14DF0420F4B701C6010E94F007C0
:1004A000D801ED91FC91119714968D919C91E80FD4
:1004B000F91F1082BBCF0F931F93CF93DF93EC01F3
:1004C00088819981009759F02A813B812617370747
:1004D00030F081E0DF91CF911F910F9108958B0152
:1004E0006F5F7F4F0E943307009759F0998388838D
:1004F0001B830A832C813D81232B59F7FC01108239
:10050000E8CF80E0E7CFCF93DF93EC01888199813A
:10051000009711F00E94AA06198218821D821C827F
:100520001B821A82DF91CF910895EF92FF920F9371
:100530001F93CF93DF938C017B01EB010990002087
:10054000E9F72197C61BD70BBE010E945B02811100
:1005500009C0C801DF91CF911F910F91FF90EF90DB
:100560000C948302F801D583C483B7018081918103
:10057000DF91CF911F910F91FF90EF900C94F907AD
:100580009F92AF92BF92CF92DF92EF92FF920F9322
:100590001F93CF93DF93EC016B015A01790124176C
:1005A000350720F48B2D5901E42EF82E198218827C
:1005B0001B821A821D821C8264E271E0CE010E94BD
:1005C0009502D60114960D911C91A016B10658F50E
:1005D000E016F10608F48701D601ED91FC91119720
:1005E000E00FF11F90801082ED90FC90EA0CFB1C54
:1005F000E114F10471F0F70101900020E9F731975F
:100600005F01AE18BF08B501CE010E945B028111E7
:1006100017C0CE010E948302F60180819181080FEC
:10062000191FD8019C92CE01DF91CF911F910F919C
:10063000FF90EF90DF90CF90BF90AF909F90089584
:10064000BD82AC82B701888199810E94F907E4CF0D
:10065000FC0180819181009711F00C94AA06089505
:100660001F920F920FB60F9211242F933F938F93E7
:100670009F93AF93BF9380912B0190912C01A091F8
:100680002D01B0912E0130912A0123E0230F2D3747
:1006900058F50196A11DB11D20932A0180932B01CD
:1006A00090932C01A0932D01B0932E0180912601EF
:1006B00090912701A0912801B09129010196A11DD7
:1006C000B11D8093260190932701A0932801B09338
:1006D0002901BF91AF919F918F913F912F910F90E1
:1006E0000FBE0F901F90189526E8230F0296A11DAC
:1006F000B11DD2CF1F920F920FB60F9211242F93DC
:100700003F934F935F936F937F938F939F93AF9399
:10071000BF93EF93FF938FE291E00E941E01FF9140
:10072000EF91BF91AF919F918F917F916F915F9169
:100730004F913F912F910F900FBE0F901F901895E2
:100740001F920F920FB60F9211242F938F939F93A6
:10075000EF93FF93E0913F01F09140018081E091A0
:100760004501F091460182FD1BC0908180914801B6
:100770008F5F8F7320914901821741F0E09148010A
:10078000F0E0E15DFE4F958F80934801FF91EF917E
:100790009F918F912F910F900FBE0F901F901895E2
:1007A0008081F4CFEFE2F1E01382128288EE93E0D1
:1007B000A0E0B0E084839583A683B7838AE091E0CC
:1007C0009183808385EC90E09587848784EC90E02A
:1007D0009787868780EC90E0918B808B81EC90E00E
:1007E000938B828B82EC90E0958B848B86EC90E0EF
:1007F000978B868B118E128E138E148EECECF1E09B
:1008000011821082138212821582148264E271E0D6
:10081000CF010C949502CF93DF93CDB7DEB76297EB
:100820000FB6F894DEBF0FBECDBF789484B582605A
:1008300084BD84B5816084BD85B5826085BD85B584
:10084000816085BD80916E00816080936E00109202
:10085000810080918100826080938100809181007D
:10086000816080938100809180008160809380000E
:100870008091B10084608093B1008091B00081606C
:100880008093B00080917A00846080937A00809198
:100890007A00826080937A0080917A0081608093F0
:1008A0007A0080917A00806880937A001092C1006B
:1008B000E0913F01F091400182E08083E0913B01B3
:1008C000F0913C011082E0913D01F0913E018FECEE
:1008D000808310924701E0914301F091440186E04A
:1008E0008083E0914101F0914201808180618083A9
:1008F000E0914101F0914201808188608083E09124
:100900004101F0914201808180688083E091410142
:10091000F091420180818F7D808380E0C82E80E04D
:10092000D82E8FE291E00E94FE00892B09F4BFC00F
:100930001E861D86188A1F861A8A198A64E271E04B
:10094000CE010D960E9495020E94B00097FD1BC03B
:1009500089831A8209891A890F5F1F4FB801CE0156
:100960000D960E945B02882379F32D853E85898947
:100970009A89BE016F5F7F4F820F931F0E94F90714
:100980001A8B098BE1CFCE010D960E94FE011A82CF
:1009900019821C821B821E821D8260E271E0CE01E0
:1009A00001960E94950289899A89892B09F47CC055
:1009B0000D851E8569817A81C8010E940008009713
:1009C00009F472C09C01201B310B8901CE010196F4
:1009D0000E942803980150E040E0BE01635F7F4F12
:1009E000CE0107960E94C002CE0107960E94FE012A
:1009F0008F819885F12C009719F00E946705F62EDB
:100A000029893A89A8014F5F5F4FBE01635F7F4F1D
:100A1000CE0101960E94C002CE0101960E94FE0105
:100A200089819A8160E0009711F00E9467053F2D4F
:100A30003E03802D112D0FB6002D682F70E090E041
:100A400080E040E10E94BA0180E291E00E94AD01A5
:100A5000612F70E090E080E040E10E94BA0180E206
:100A600091E00E94AD018AE191E000FD02C088E1C1
:100A700091E00E94AD018CE191E001FF02C08EE1A6
:100A800091E00E94AD0182E291E00E94AD01CE01B1
:100A900001960E942803CE0107960E942803CE01EA
:100AA0000D960E9428033DCF0FEF1FEF8FCFC1148B
:100AB000D10409F436CF0E940A01882309F431CF0A
:100AC0000E9400002ECF8CEC91E00C9428031F9321
:100AD000FC0199278827BC01E89411911032E9F3B1
:100AE000193010F01E30C8F31B3251F01D3249F49A
:100AF000689406C00E948E05610F711D811D911DB5
:100B0000119110531A30B0F33EF490958095709582
:100B100061957F4F8F4F9F4F1F910895592F482FF9
:100B2000372F262F660F771F881F991F660F771F95
:100B3000881F991F620F731F841F951F660F771FF1
:100B4000881F991F089591110C94AC05803219F0FB
:100B500089508550C8F708959927882708952F92BE
:100B60003F924F925F926F927F928F929F92AF923D
:100B7000BF92CF92DF92EF92FF920F931F93CF938A
:100B8000DF93CDB7DEB7CA1BDB0B0FB6F894DEBF21
:100B90000FBECDBF09942A88398848885F846E8447
:100BA0007D848C849B84AA84B984C884DF80EE8091
:100BB000FD800C811B81AA81B981CE0FD11D0FB69A
:100BC000F894DEBF0FBECDBFED010895A1E21A2E4D
:100BD000AA1BBB1BFD010DC0AA1FBB1FEE1FFF1FE1
:100BE000A217B307E407F50720F0A21BB30BE40B31
:100BF000F50B661F771F881F991F1A9469F7609578
:100C00007095809590959B01AC01BD01CF01089531
:100C1000EE0FFF1F0590F491E02D09940F931F93A1
:100C2000CF93DF938230910510F482E090E0E09161
:100C3000D401F091D50130E020E0B0E0A0E03097A1
:100C400099F42115310509F44AC0281B390B2430C9
:100C50003105D8F58A819B816115710589F1FB0108
:100C600093838283FE0111C04081518102811381EF
:100C700048175907E0F04817590799F4109761F0A1
:100C800012960C93129713961C933296CF01DF9114
:100C9000CF911F910F9108950093D4011093D50126
:100CA000F4CF2115310551F04217530738F0A9014F
:100CB000DB019A01BD01DF01F801C1CFEF01F9CFDE
:100CC0009093D5018093D401CDCFFE01E20FF31FA5
:100CD000819391932250310939832883D7CF209172
:100CE000D2013091D301232B41F4209102013091A4
:100CF00003013093D3012093D20120910001309160
:100D000001012115310541F42DB73EB74091040191
:100D100050910501241B350BE091D201F091D301D4
:100D2000E217F307A0F42E1B3F0B2817390778F0C2
:100D3000AC014E5F5F4F2417350748F04E0F5F1F21
:100D40005093D3014093D201819391939FCFF0E0D0
:100D5000E0E09CCFCF93DF930097E9F0FC0132975E
:100D600013821282A091D401B091D501ED0130E03F
:100D700020E01097A1F420813181820F931F2091F0
:100D8000D2013091D3012817390709F061C0F093DF
:100D9000D301E093D201DF91CF910895EA01CE17FC
:100DA000DF07E8F54A815B819E0141155105B1F7E6
:100DB000E901FB83EA8349915991C40FD51FEC17D0
:100DC000FD0761F4808191810296840F951FE901EE
:100DD00099838883828193819B838A83F0E0E0E01A
:100DE00012968D919C9113970097B9F52D913C9196
:100DF0001197CD010296820F931F2091D20130915D
:100E0000D3012817390739F6309751F51092D501DB
:100E10001092D401B093D301A093D201BCCFD3835D
:100E2000C28340815181840F951FC817D90761F48F
:100E30004E5F5F4F88819981480F591F51834083CE
:100E40008A819B81938382832115310509F0B0CF7C
:100E5000F093D501E093D4019ECFFD01DC01C0CF1A
:100E600013821282D7CFB0E0A0E0E9E3F7E00C9460
:100E7000B1058C01009751F4CB010E940E068C0144
:100E8000C801CDB7DEB7E0E10C94CD05FC01E60F5B
:100E9000F71F9C0122503109E217F30708F49DC0A7
:100EA000D901CD91DC911197C617D70798F0C530BD
:100EB000D10530F3CE0104978617970708F3C61BB8
:100EC000D70B2297C193D1936D937C93CF010E944E
:100ED000AA06D6CF5B01AC1ABD0A4C018C0E9D1E32
:100EE000A091D401B091D501512C412CF12CE12CD1
:100EF000109731F58091D2019091D3018815990511
:100F000009F05CC04616570608F058C080910001F1
:100F100090910101009741F48DB79EB74091040173
:100F200050910501841B950BE817F90708F055C08F
:100F3000F093D301E093D201F90171836083A0CFD4
:100F40008D919C91119712966C90129713967C90AC
:100F50001397A815B90559F56C0142E0C40ED11CD0
:100F6000CA14DB0420F1AC014A195B09DA011296BC
:100F7000159780F06282738251834083D9016D930B
:100F80007C93E114F10471F0D7011396FC93EE9376
:100F9000129776CF22968C0F9D1FF9019183808343
:100FA000F301EFCFF093D501E093D40169CF481658
:100FB000590608F42C017D01D3019ACFCB010E9480
:100FC0000E067C01009749F0AE01B8010E94F007BF
:100FD000C8010E94AA06870153CF10E000E050CF5D
:100FE000FB01DC0102C001900D9241505040D8F746
:100FF0000895FB01DC0101900D920020E1F70895B6
:10100000FB0151915523A9F0BF01DC014D9145171A
:101010004111E1F759F4CD010190002049F04D91C3
:1010200040154111C9F3FB014111EFCF81E090E080
:101030000197089510E0C5E3D0E004C0FE010E94CE
:0E10400008062196C633D107C9F7F894FFCFF2
:10104E000000D601800000000000400160008D000D
:10105E008D01FE009C00F000630043007A005A00F0
:06106E0020000D0A000045
:00000001FF
